{
	"Users/klee1/prj/remix-projects/demo_smart_contract.sol": {
		"SimpleStorage": {
			"abi": [
				{
					"inputs": [
						{
							"internalType": "string",
							"name": "_name",
							"type": "string"
						},
						{
							"internalType": "uint256",
							"name": "_favoriteNumber",
							"type": "uint256"
						}
					],
					"name": "addPerson",
					"outputs": [],
					"stateMutability": "nonpayable",
					"type": "function"
				},
				{
					"inputs": [
						{
							"internalType": "uint256",
							"name": "",
							"type": "uint256"
						}
					],
					"name": "person",
					"outputs": [
						{
							"internalType": "uint256",
							"name": "favoriteNumber",
							"type": "uint256"
						},
						{
							"internalType": "string",
							"name": "name",
							"type": "string"
						}
					],
					"stateMutability": "view",
					"type": "function"
				},
				{
					"inputs": [],
					"name": "retrieve",
					"outputs": [
						{
							"internalType": "uint256",
							"name": "",
							"type": "uint256"
						}
					],
					"stateMutability": "view",
					"type": "function"
				},
				{
					"inputs": [
						{
							"internalType": "uint256",
							"name": "_favoriteNumber",
							"type": "uint256"
						}
					],
					"name": "store",
					"outputs": [],
					"stateMutability": "nonpayable",
					"type": "function"
				}
			],
			"devdoc": {
				"kind": "dev",
				"methods": {},
				"version": 1
			},
			"evm": {
				"assembly": "    /* \"Users/klee1/prj/remix-projects/demo_smart_contract.sol\":105:631  contract SimpleStorage {... */\n  mstore(0x40, 0x80)\n  callvalue\n  dup1\n  iszero\n  tag_1\n  jumpi\n  0x00\n  dup1\n  revert\ntag_1:\n  pop\n  dataSize(sub_0)\n  dup1\n  dataOffset(sub_0)\n  0x00\n  codecopy\n  0x00\n  return\nstop\n\nsub_0: assembly {\n        /* \"Users/klee1/prj/remix-projects/demo_smart_contract.sol\":105:631  contract SimpleStorage {... */\n      mstore(0x40, 0x80)\n      callvalue\n      dup1\n      iszero\n      tag_1\n      jumpi\n      0x00\n      dup1\n      revert\n    tag_1:\n      pop\n      jumpi(tag_2, lt(calldatasize, 0x04))\n      shr(0xe0, calldataload(0x00))\n      dup1\n      0x092a1820\n      eq\n      tag_3\n      jumpi\n      dup1\n      0x2e64cec1\n      eq\n      tag_4\n      jumpi\n      dup1\n      0x6057361d\n      eq\n      tag_5\n      jumpi\n      dup1\n      0x6f760f41\n      eq\n      tag_6\n      jumpi\n    tag_2:\n      0x00\n      dup1\n      revert\n        /* \"Users/klee1/prj/remix-projects/demo_smart_contract.sol\":271:293  People[] public person */\n    tag_3:\n      tag_7\n      0x04\n      dup1\n      calldatasize\n      sub\n      dup2\n      add\n      swap1\n      tag_8\n      swap2\n      swap1\n      tag_9\n      jump\t// in\n    tag_8:\n      tag_10\n      jump\t// in\n    tag_7:\n      mload(0x40)\n      tag_11\n      swap3\n      swap2\n      swap1\n      tag_12\n      jump\t// in\n    tag_11:\n      mload(0x40)\n      dup1\n      swap2\n      sub\n      swap1\n      return\n        /* \"Users/klee1/prj/remix-projects/demo_smart_contract.sol\":403:490  function retrieve() public view returns(uint256) {... */\n    tag_4:\n      tag_13\n      tag_14\n      jump\t// in\n    tag_13:\n      mload(0x40)\n      tag_15\n      swap2\n      swap1\n      tag_16\n      jump\t// in\n    tag_15:\n      mload(0x40)\n      dup1\n      swap2\n      sub\n      swap1\n      return\n        /* \"Users/klee1/prj/remix-projects/demo_smart_contract.sol\":301:397  function store(uint256 _favoriteNumber) public {... */\n    tag_5:\n      tag_17\n      0x04\n      dup1\n      calldatasize\n      sub\n      dup2\n      add\n      swap1\n      tag_18\n      swap2\n      swap1\n      tag_9\n      jump\t// in\n    tag_18:\n      tag_19\n      jump\t// in\n    tag_17:\n      stop\n        /* \"Users/klee1/prj/remix-projects/demo_smart_contract.sol\":496:629  function addPerson(string memory _name, uint256 _favoriteNumber) public {... */\n    tag_6:\n      tag_20\n      0x04\n      dup1\n      calldatasize\n      sub\n      dup2\n      add\n      swap1\n      tag_21\n      swap2\n      swap1\n      tag_22\n      jump\t// in\n    tag_21:\n      tag_23\n      jump\t// in\n    tag_20:\n      stop\n        /* \"Users/klee1/prj/remix-projects/demo_smart_contract.sol\":271:293  People[] public person */\n    tag_10:\n      0x01\n      dup2\n      dup2\n      sload\n      dup2\n      lt\n      tag_24\n      jumpi\n      0x00\n      dup1\n      revert\n    tag_24:\n      swap1\n      0x00\n      mstore\n      keccak256(0x00, 0x20)\n      swap1\n      0x02\n      mul\n      add\n      0x00\n      swap2\n      pop\n      swap1\n      pop\n      dup1\n      0x00\n      add\n      sload\n      swap1\n      dup1\n      0x01\n      add\n      dup1\n      sload\n      tag_26\n      swap1\n      tag_27\n      jump\t// in\n    tag_26:\n      dup1\n      0x1f\n      add\n      0x20\n      dup1\n      swap2\n      div\n      mul\n      0x20\n      add\n      mload(0x40)\n      swap1\n      dup2\n      add\n      0x40\n      mstore\n      dup1\n      swap3\n      swap2\n      swap1\n      dup2\n      dup2\n      mstore\n      0x20\n      add\n      dup3\n      dup1\n      sload\n      tag_28\n      swap1\n      tag_27\n      jump\t// in\n    tag_28:\n      dup1\n      iszero\n      tag_29\n      jumpi\n      dup1\n      0x1f\n      lt\n      tag_30\n      jumpi\n      0x0100\n      dup1\n      dup4\n      sload\n      div\n      mul\n      dup4\n      mstore\n      swap2\n      0x20\n      add\n      swap2\n      jump(tag_29)\n    tag_30:\n      dup3\n      add\n      swap2\n      swap1\n      0x00\n      mstore\n      keccak256(0x00, 0x20)\n      swap1\n    tag_31:\n      dup2\n      sload\n      dup2\n      mstore\n      swap1\n      0x01\n      add\n      swap1\n      0x20\n      add\n      dup1\n      dup4\n      gt\n      tag_31\n      jumpi\n      dup3\n      swap1\n      sub\n      0x1f\n      and\n      dup3\n      add\n      swap2\n    tag_29:\n      pop\n      pop\n      pop\n      pop\n      pop\n      swap1\n      pop\n      dup3\n      jump\t// out\n        /* \"Users/klee1/prj/remix-projects/demo_smart_contract.sol\":403:490  function retrieve() public view returns(uint256) {... */\n    tag_14:\n        /* \"Users/klee1/prj/remix-projects/demo_smart_contract.sol\":443:450  uint256 */\n      0x00\n        /* \"Users/klee1/prj/remix-projects/demo_smart_contract.sol\":469:483  favoriteNumber */\n      dup1\n      sload\n        /* \"Users/klee1/prj/remix-projects/demo_smart_contract.sol\":462:483  return favoriteNumber */\n      swap1\n      pop\n        /* \"Users/klee1/prj/remix-projects/demo_smart_contract.sol\":403:490  function retrieve() public view returns(uint256) {... */\n      swap1\n      jump\t// out\n        /* \"Users/klee1/prj/remix-projects/demo_smart_contract.sol\":301:397  function store(uint256 _favoriteNumber) public {... */\n    tag_19:\n        /* \"Users/klee1/prj/remix-projects/demo_smart_contract.sol\":375:390  _favoriteNumber */\n      dup1\n        /* \"Users/klee1/prj/remix-projects/demo_smart_contract.sol\":358:372  favoriteNumber */\n      0x00\n        /* \"Users/klee1/prj/remix-projects/demo_smart_contract.sol\":358:390  favoriteNumber = _favoriteNumber */\n      dup2\n      swap1\n      sstore\n      pop\n        /* \"Users/klee1/prj/remix-projects/demo_smart_contract.sol\":301:397  function store(uint256 _favoriteNumber) public {... */\n      pop\n      jump\t// out\n        /* \"Users/klee1/prj/remix-projects/demo_smart_contract.sol\":496:629  function addPerson(string memory _name, uint256 _favoriteNumber) public {... */\n    tag_23:\n        /* \"Users/klee1/prj/remix-projects/demo_smart_contract.sol\":578:584  person */\n      0x01\n        /* \"Users/klee1/prj/remix-projects/demo_smart_contract.sol\":590:620  People(_favoriteNumber, _name) */\n      mload(0x40)\n      dup1\n      0x40\n      add\n      0x40\n      mstore\n      dup1\n        /* \"Users/klee1/prj/remix-projects/demo_smart_contract.sol\":597:612  _favoriteNumber */\n      dup4\n        /* \"Users/klee1/prj/remix-projects/demo_smart_contract.sol\":590:620  People(_favoriteNumber, _name) */\n      dup2\n      mstore\n      0x20\n      add\n        /* \"Users/klee1/prj/remix-projects/demo_smart_contract.sol\":614:619  _name */\n      dup5\n        /* \"Users/klee1/prj/remix-projects/demo_smart_contract.sol\":590:620  People(_favoriteNumber, _name) */\n      dup2\n      mstore\n      pop\n        /* \"Users/klee1/prj/remix-projects/demo_smart_contract.sol\":578:621  person.push(People(_favoriteNumber, _name)) */\n      swap1\n      dup1\n      0x01\n      dup2\n      sload\n      add\n      dup1\n      dup3\n      sstore\n      dup1\n      swap2\n      pop\n      pop\n      0x01\n      swap1\n      sub\n      swap1\n      0x00\n      mstore\n      keccak256(0x00, 0x20)\n      swap1\n      0x02\n      mul\n      add\n      0x00\n      swap1\n      swap2\n      swap1\n      swap2\n      swap1\n      swap2\n      pop\n      0x00\n      dup3\n      add\n      mload\n      dup2\n      0x00\n      add\n      sstore\n      0x20\n      dup3\n      add\n      mload\n      dup2\n      0x01\n      add\n      swap1\n      dup2\n      tag_36\n      swap2\n      swap1\n      tag_37\n      jump\t// in\n    tag_36:\n      pop\n      pop\n      pop\n        /* \"Users/klee1/prj/remix-projects/demo_smart_contract.sol\":496:629  function addPerson(string memory _name, uint256 _favoriteNumber) public {... */\n      pop\n      pop\n      jump\t// out\n        /* \"#utility.yul\":7:82   */\n    tag_38:\n        /* \"#utility.yul\":40:46   */\n      0x00\n        /* \"#utility.yul\":73:75   */\n      0x40\n        /* \"#utility.yul\":67:76   */\n      mload\n        /* \"#utility.yul\":57:76   */\n      swap1\n      pop\n        /* \"#utility.yul\":7:82   */\n      swap1\n      jump\t// out\n        /* \"#utility.yul\":88:205   */\n    tag_39:\n        /* \"#utility.yul\":197:198   */\n      0x00\n        /* \"#utility.yul\":194:195   */\n      dup1\n        /* \"#utility.yul\":187:199   */\n      revert\n        /* \"#utility.yul\":211:328   */\n    tag_40:\n        /* \"#utility.yul\":320:321   */\n      0x00\n        /* \"#utility.yul\":317:318   */\n      dup1\n        /* \"#utility.yul\":310:322   */\n      revert\n        /* \"#utility.yul\":334:411   */\n    tag_41:\n        /* \"#utility.yul\":371:378   */\n      0x00\n        /* \"#utility.yul\":400:405   */\n      dup2\n        /* \"#utility.yul\":389:405   */\n      swap1\n      pop\n        /* \"#utility.yul\":334:411   */\n      swap2\n      swap1\n      pop\n      jump\t// out\n        /* \"#utility.yul\":417:539   */\n    tag_42:\n        /* \"#utility.yul\":490:514   */\n      tag_81\n        /* \"#utility.yul\":508:513   */\n      dup2\n        /* \"#utility.yul\":490:514   */\n      tag_41\n      jump\t// in\n    tag_81:\n        /* \"#utility.yul\":483:488   */\n      dup2\n        /* \"#utility.yul\":480:515   */\n      eq\n        /* \"#utility.yul\":470:533   */\n      tag_82\n      jumpi\n        /* \"#utility.yul\":529:530   */\n      0x00\n        /* \"#utility.yul\":526:527   */\n      dup1\n        /* \"#utility.yul\":519:531   */\n      revert\n        /* \"#utility.yul\":470:533   */\n    tag_82:\n        /* \"#utility.yul\":417:539   */\n      pop\n      jump\t// out\n        /* \"#utility.yul\":545:684   */\n    tag_43:\n        /* \"#utility.yul\":591:596   */\n      0x00\n        /* \"#utility.yul\":629:635   */\n      dup2\n        /* \"#utility.yul\":616:636   */\n      calldataload\n        /* \"#utility.yul\":607:636   */\n      swap1\n      pop\n        /* \"#utility.yul\":645:678   */\n      tag_84\n        /* \"#utility.yul\":672:677   */\n      dup2\n        /* \"#utility.yul\":645:678   */\n      tag_42\n      jump\t// in\n    tag_84:\n        /* \"#utility.yul\":545:684   */\n      swap3\n      swap2\n      pop\n      pop\n      jump\t// out\n        /* \"#utility.yul\":690:1019   */\n    tag_9:\n        /* \"#utility.yul\":749:755   */\n      0x00\n        /* \"#utility.yul\":798:800   */\n      0x20\n        /* \"#utility.yul\":786:795   */\n      dup3\n        /* \"#utility.yul\":777:784   */\n      dup5\n        /* \"#utility.yul\":773:796   */\n      sub\n        /* \"#utility.yul\":769:801   */\n      slt\n        /* \"#utility.yul\":766:885   */\n      iszero\n      tag_86\n      jumpi\n        /* \"#utility.yul\":804:883   */\n      tag_87\n      tag_39\n      jump\t// in\n    tag_87:\n        /* \"#utility.yul\":766:885   */\n    tag_86:\n        /* \"#utility.yul\":924:925   */\n      0x00\n        /* \"#utility.yul\":949:1002   */\n      tag_88\n        /* \"#utility.yul\":994:1001   */\n      dup5\n        /* \"#utility.yul\":985:991   */\n      dup3\n        /* \"#utility.yul\":974:983   */\n      dup6\n        /* \"#utility.yul\":970:992   */\n      add\n        /* \"#utility.yul\":949:1002   */\n      tag_43\n      jump\t// in\n    tag_88:\n        /* \"#utility.yul\":939:1002   */\n      swap2\n      pop\n        /* \"#utility.yul\":895:1012   */\n      pop\n        /* \"#utility.yul\":690:1019   */\n      swap3\n      swap2\n      pop\n      pop\n      jump\t// out\n        /* \"#utility.yul\":1025:1143   */\n    tag_44:\n        /* \"#utility.yul\":1112:1136   */\n      tag_90\n        /* \"#utility.yul\":1130:1135   */\n      dup2\n        /* \"#utility.yul\":1112:1136   */\n      tag_41\n      jump\t// in\n    tag_90:\n        /* \"#utility.yul\":1107:1110   */\n      dup3\n        /* \"#utility.yul\":1100:1137   */\n      mstore\n        /* \"#utility.yul\":1025:1143   */\n      pop\n      pop\n      jump\t// out\n        /* \"#utility.yul\":1149:1248   */\n    tag_45:\n        /* \"#utility.yul\":1201:1207   */\n      0x00\n        /* \"#utility.yul\":1235:1240   */\n      dup2\n        /* \"#utility.yul\":1229:1241   */\n      mload\n        /* \"#utility.yul\":1219:1241   */\n      swap1\n      pop\n        /* \"#utility.yul\":1149:1248   */\n      swap2\n      swap1\n      pop\n      jump\t// out\n        /* \"#utility.yul\":1254:1423   */\n    tag_46:\n        /* \"#utility.yul\":1338:1349   */\n      0x00\n        /* \"#utility.yul\":1372:1378   */\n      dup3\n        /* \"#utility.yul\":1367:1370   */\n      dup3\n        /* \"#utility.yul\":1360:1379   */\n      mstore\n        /* \"#utility.yul\":1412:1416   */\n      0x20\n        /* \"#utility.yul\":1407:1410   */\n      dup3\n        /* \"#utility.yul\":1403:1417   */\n      add\n        /* \"#utility.yul\":1388:1417   */\n      swap1\n      pop\n        /* \"#utility.yul\":1254:1423   */\n      swap3\n      swap2\n      pop\n      pop\n      jump\t// out\n        /* \"#utility.yul\":1429:1736   */\n    tag_47:\n        /* \"#utility.yul\":1497:1498   */\n      0x00\n        /* \"#utility.yul\":1507:1620   */\n    tag_94:\n        /* \"#utility.yul\":1521:1527   */\n      dup4\n        /* \"#utility.yul\":1518:1519   */\n      dup2\n        /* \"#utility.yul\":1515:1528   */\n      lt\n        /* \"#utility.yul\":1507:1620   */\n      iszero\n      tag_96\n      jumpi\n        /* \"#utility.yul\":1606:1607   */\n      dup1\n        /* \"#utility.yul\":1601:1604   */\n      dup3\n        /* \"#utility.yul\":1597:1608   */\n      add\n        /* \"#utility.yul\":1591:1609   */\n      mload\n        /* \"#utility.yul\":1587:1588   */\n      dup2\n        /* \"#utility.yul\":1582:1585   */\n      dup5\n        /* \"#utility.yul\":1578:1589   */\n      add\n        /* \"#utility.yul\":1571:1610   */\n      mstore\n        /* \"#utility.yul\":1543:1545   */\n      0x20\n        /* \"#utility.yul\":1540:1541   */\n      dup2\n        /* \"#utility.yul\":1536:1546   */\n      add\n        /* \"#utility.yul\":1531:1546   */\n      swap1\n      pop\n        /* \"#utility.yul\":1507:1620   */\n      jump(tag_94)\n    tag_96:\n        /* \"#utility.yul\":1638:1644   */\n      dup4\n        /* \"#utility.yul\":1635:1636   */\n      dup2\n        /* \"#utility.yul\":1632:1645   */\n      gt\n        /* \"#utility.yul\":1629:1730   */\n      iszero\n      tag_97\n      jumpi\n        /* \"#utility.yul\":1718:1719   */\n      0x00\n        /* \"#utility.yul\":1709:1715   */\n      dup5\n        /* \"#utility.yul\":1704:1707   */\n      dup5\n        /* \"#utility.yul\":1700:1716   */\n      add\n        /* \"#utility.yul\":1693:1720   */\n      mstore\n        /* \"#utility.yul\":1629:1730   */\n    tag_97:\n        /* \"#utility.yul\":1478:1736   */\n      pop\n        /* \"#utility.yul\":1429:1736   */\n      pop\n      pop\n      pop\n      jump\t// out\n        /* \"#utility.yul\":1742:1844   */\n    tag_48:\n        /* \"#utility.yul\":1783:1789   */\n      0x00\n        /* \"#utility.yul\":1834:1836   */\n      0x1f\n        /* \"#utility.yul\":1830:1837   */\n      not\n        /* \"#utility.yul\":1825:1827   */\n      0x1f\n        /* \"#utility.yul\":1818:1823   */\n      dup4\n        /* \"#utility.yul\":1814:1828   */\n      add\n        /* \"#utility.yul\":1810:1838   */\n      and\n        /* \"#utility.yul\":1800:1838   */\n      swap1\n      pop\n        /* \"#utility.yul\":1742:1844   */\n      swap2\n      swap1\n      pop\n      jump\t// out\n        /* \"#utility.yul\":1850:2214   */\n    tag_49:\n        /* \"#utility.yul\":1938:1941   */\n      0x00\n        /* \"#utility.yul\":1966:2005   */\n      tag_100\n        /* \"#utility.yul\":1999:2004   */\n      dup3\n        /* \"#utility.yul\":1966:2005   */\n      tag_45\n      jump\t// in\n    tag_100:\n        /* \"#utility.yul\":2021:2092   */\n      tag_101\n        /* \"#utility.yul\":2085:2091   */\n      dup2\n        /* \"#utility.yul\":2080:2083   */\n      dup6\n        /* \"#utility.yul\":2021:2092   */\n      tag_46\n      jump\t// in\n    tag_101:\n        /* \"#utility.yul\":2014:2092   */\n      swap4\n      pop\n        /* \"#utility.yul\":2101:2153   */\n      tag_102\n        /* \"#utility.yul\":2146:2152   */\n      dup2\n        /* \"#utility.yul\":2141:2144   */\n      dup6\n        /* \"#utility.yul\":2134:2138   */\n      0x20\n        /* \"#utility.yul\":2127:2132   */\n      dup7\n        /* \"#utility.yul\":2123:2139   */\n      add\n        /* \"#utility.yul\":2101:2153   */\n      tag_47\n      jump\t// in\n    tag_102:\n        /* \"#utility.yul\":2178:2207   */\n      tag_103\n        /* \"#utility.yul\":2200:2206   */\n      dup2\n        /* \"#utility.yul\":2178:2207   */\n      tag_48\n      jump\t// in\n    tag_103:\n        /* \"#utility.yul\":2173:2176   */\n      dup5\n        /* \"#utility.yul\":2169:2208   */\n      add\n        /* \"#utility.yul\":2162:2208   */\n      swap2\n      pop\n        /* \"#utility.yul\":1942:2214   */\n      pop\n        /* \"#utility.yul\":1850:2214   */\n      swap3\n      swap2\n      pop\n      pop\n      jump\t// out\n        /* \"#utility.yul\":2220:2643   */\n    tag_12:\n        /* \"#utility.yul\":2361:2365   */\n      0x00\n        /* \"#utility.yul\":2399:2401   */\n      0x40\n        /* \"#utility.yul\":2388:2397   */\n      dup3\n        /* \"#utility.yul\":2384:2402   */\n      add\n        /* \"#utility.yul\":2376:2402   */\n      swap1\n      pop\n        /* \"#utility.yul\":2412:2483   */\n      tag_105\n        /* \"#utility.yul\":2480:2481   */\n      0x00\n        /* \"#utility.yul\":2469:2478   */\n      dup4\n        /* \"#utility.yul\":2465:2482   */\n      add\n        /* \"#utility.yul\":2456:2462   */\n      dup6\n        /* \"#utility.yul\":2412:2483   */\n      tag_44\n      jump\t// in\n    tag_105:\n        /* \"#utility.yul\":2530:2539   */\n      dup2\n        /* \"#utility.yul\":2524:2528   */\n      dup2\n        /* \"#utility.yul\":2520:2540   */\n      sub\n        /* \"#utility.yul\":2515:2517   */\n      0x20\n        /* \"#utility.yul\":2504:2513   */\n      dup4\n        /* \"#utility.yul\":2500:2518   */\n      add\n        /* \"#utility.yul\":2493:2541   */\n      mstore\n        /* \"#utility.yul\":2558:2636   */\n      tag_106\n        /* \"#utility.yul\":2631:2635   */\n      dup2\n        /* \"#utility.yul\":2622:2628   */\n      dup5\n        /* \"#utility.yul\":2558:2636   */\n      tag_49\n      jump\t// in\n    tag_106:\n        /* \"#utility.yul\":2550:2636   */\n      swap1\n      pop\n        /* \"#utility.yul\":2220:2643   */\n      swap4\n      swap3\n      pop\n      pop\n      pop\n      jump\t// out\n        /* \"#utility.yul\":2649:2871   */\n    tag_16:\n        /* \"#utility.yul\":2742:2746   */\n      0x00\n        /* \"#utility.yul\":2780:2782   */\n      0x20\n        /* \"#utility.yul\":2769:2778   */\n      dup3\n        /* \"#utility.yul\":2765:2783   */\n      add\n        /* \"#utility.yul\":2757:2783   */\n      swap1\n      pop\n        /* \"#utility.yul\":2793:2864   */\n      tag_108\n        /* \"#utility.yul\":2861:2862   */\n      0x00\n        /* \"#utility.yul\":2850:2859   */\n      dup4\n        /* \"#utility.yul\":2846:2863   */\n      add\n        /* \"#utility.yul\":2837:2843   */\n      dup5\n        /* \"#utility.yul\":2793:2864   */\n      tag_44\n      jump\t// in\n    tag_108:\n        /* \"#utility.yul\":2649:2871   */\n      swap3\n      swap2\n      pop\n      pop\n      jump\t// out\n        /* \"#utility.yul\":2877:2994   */\n    tag_50:\n        /* \"#utility.yul\":2986:2987   */\n      0x00\n        /* \"#utility.yul\":2983:2984   */\n      dup1\n        /* \"#utility.yul\":2976:2988   */\n      revert\n        /* \"#utility.yul\":3000:3117   */\n    tag_51:\n        /* \"#utility.yul\":3109:3110   */\n      0x00\n        /* \"#utility.yul\":3106:3107   */\n      dup1\n        /* \"#utility.yul\":3099:3111   */\n      revert\n        /* \"#utility.yul\":3123:3303   */\n    tag_52:\n        /* \"#utility.yul\":3171:3248   */\n      0x4e487b7100000000000000000000000000000000000000000000000000000000\n        /* \"#utility.yul\":3168:3169   */\n      0x00\n        /* \"#utility.yul\":3161:3249   */\n      mstore\n        /* \"#utility.yul\":3268:3272   */\n      0x41\n        /* \"#utility.yul\":3265:3266   */\n      0x04\n        /* \"#utility.yul\":3258:3273   */\n      mstore\n        /* \"#utility.yul\":3292:3296   */\n      0x24\n        /* \"#utility.yul\":3289:3290   */\n      0x00\n        /* \"#utility.yul\":3282:3297   */\n      revert\n        /* \"#utility.yul\":3309:3590   */\n    tag_53:\n        /* \"#utility.yul\":3392:3419   */\n      tag_113\n        /* \"#utility.yul\":3414:3418   */\n      dup3\n        /* \"#utility.yul\":3392:3419   */\n      tag_48\n      jump\t// in\n    tag_113:\n        /* \"#utility.yul\":3384:3390   */\n      dup2\n        /* \"#utility.yul\":3380:3420   */\n      add\n        /* \"#utility.yul\":3522:3528   */\n      dup2\n        /* \"#utility.yul\":3510:3520   */\n      dup2\n        /* \"#utility.yul\":3507:3529   */\n      lt\n        /* \"#utility.yul\":3486:3504   */\n      0xffffffffffffffff\n        /* \"#utility.yul\":3474:3484   */\n      dup3\n        /* \"#utility.yul\":3471:3505   */\n      gt\n        /* \"#utility.yul\":3468:3530   */\n      or\n        /* \"#utility.yul\":3465:3553   */\n      iszero\n      tag_114\n      jumpi\n        /* \"#utility.yul\":3533:3551   */\n      tag_115\n      tag_52\n      jump\t// in\n    tag_115:\n        /* \"#utility.yul\":3465:3553   */\n    tag_114:\n        /* \"#utility.yul\":3573:3583   */\n      dup1\n        /* \"#utility.yul\":3569:3571   */\n      0x40\n        /* \"#utility.yul\":3562:3584   */\n      mstore\n        /* \"#utility.yul\":3352:3590   */\n      pop\n        /* \"#utility.yul\":3309:3590   */\n      pop\n      pop\n      jump\t// out\n        /* \"#utility.yul\":3596:3725   */\n    tag_54:\n        /* \"#utility.yul\":3630:3636   */\n      0x00\n        /* \"#utility.yul\":3657:3677   */\n      tag_117\n      tag_38\n      jump\t// in\n    tag_117:\n        /* \"#utility.yul\":3647:3677   */\n      swap1\n      pop\n        /* \"#utility.yul\":3686:3719   */\n      tag_118\n        /* \"#utility.yul\":3714:3718   */\n      dup3\n        /* \"#utility.yul\":3706:3712   */\n      dup3\n        /* \"#utility.yul\":3686:3719   */\n      tag_53\n      jump\t// in\n    tag_118:\n        /* \"#utility.yul\":3596:3725   */\n      swap2\n      swap1\n      pop\n      jump\t// out\n        /* \"#utility.yul\":3731:4039   */\n    tag_55:\n        /* \"#utility.yul\":3793:3797   */\n      0x00\n        /* \"#utility.yul\":3883:3901   */\n      0xffffffffffffffff\n        /* \"#utility.yul\":3875:3881   */\n      dup3\n        /* \"#utility.yul\":3872:3902   */\n      gt\n        /* \"#utility.yul\":3869:3925   */\n      iszero\n      tag_120\n      jumpi\n        /* \"#utility.yul\":3905:3923   */\n      tag_121\n      tag_52\n      jump\t// in\n    tag_121:\n        /* \"#utility.yul\":3869:3925   */\n    tag_120:\n        /* \"#utility.yul\":3943:3972   */\n      tag_122\n        /* \"#utility.yul\":3965:3971   */\n      dup3\n        /* \"#utility.yul\":3943:3972   */\n      tag_48\n      jump\t// in\n    tag_122:\n        /* \"#utility.yul\":3935:3972   */\n      swap1\n      pop\n        /* \"#utility.yul\":4027:4031   */\n      0x20\n        /* \"#utility.yul\":4021:4025   */\n      dup2\n        /* \"#utility.yul\":4017:4032   */\n      add\n        /* \"#utility.yul\":4009:4032   */\n      swap1\n      pop\n        /* \"#utility.yul\":3731:4039   */\n      swap2\n      swap1\n      pop\n      jump\t// out\n        /* \"#utility.yul\":4045:4199   */\n    tag_56:\n        /* \"#utility.yul\":4129:4135   */\n      dup3\n        /* \"#utility.yul\":4124:4127   */\n      dup2\n        /* \"#utility.yul\":4119:4122   */\n      dup4\n        /* \"#utility.yul\":4106:4136   */\n      calldatacopy\n        /* \"#utility.yul\":4191:4192   */\n      0x00\n        /* \"#utility.yul\":4182:4188   */\n      dup4\n        /* \"#utility.yul\":4177:4180   */\n      dup4\n        /* \"#utility.yul\":4173:4189   */\n      add\n        /* \"#utility.yul\":4166:4193   */\n      mstore\n        /* \"#utility.yul\":4045:4199   */\n      pop\n      pop\n      pop\n      jump\t// out\n        /* \"#utility.yul\":4205:4617   */\n    tag_57:\n        /* \"#utility.yul\":4283:4288   */\n      0x00\n        /* \"#utility.yul\":4308:4374   */\n      tag_125\n        /* \"#utility.yul\":4324:4373   */\n      tag_126\n        /* \"#utility.yul\":4366:4372   */\n      dup5\n        /* \"#utility.yul\":4324:4373   */\n      tag_55\n      jump\t// in\n    tag_126:\n        /* \"#utility.yul\":4308:4374   */\n      tag_54\n      jump\t// in\n    tag_125:\n        /* \"#utility.yul\":4299:4374   */\n      swap1\n      pop\n        /* \"#utility.yul\":4397:4403   */\n      dup3\n        /* \"#utility.yul\":4390:4395   */\n      dup2\n        /* \"#utility.yul\":4383:4404   */\n      mstore\n        /* \"#utility.yul\":4435:4439   */\n      0x20\n        /* \"#utility.yul\":4428:4433   */\n      dup2\n        /* \"#utility.yul\":4424:4440   */\n      add\n        /* \"#utility.yul\":4473:4476   */\n      dup5\n        /* \"#utility.yul\":4464:4470   */\n      dup5\n        /* \"#utility.yul\":4459:4462   */\n      dup5\n        /* \"#utility.yul\":4455:4471   */\n      add\n        /* \"#utility.yul\":4452:4477   */\n      gt\n        /* \"#utility.yul\":4449:4561   */\n      iszero\n      tag_127\n      jumpi\n        /* \"#utility.yul\":4480:4559   */\n      tag_128\n      tag_51\n      jump\t// in\n    tag_128:\n        /* \"#utility.yul\":4449:4561   */\n    tag_127:\n        /* \"#utility.yul\":4570:4611   */\n      tag_129\n        /* \"#utility.yul\":4604:4610   */\n      dup5\n        /* \"#utility.yul\":4599:4602   */\n      dup3\n        /* \"#utility.yul\":4594:4597   */\n      dup6\n        /* \"#utility.yul\":4570:4611   */\n      tag_56\n      jump\t// in\n    tag_129:\n        /* \"#utility.yul\":4289:4617   */\n      pop\n        /* \"#utility.yul\":4205:4617   */\n      swap4\n      swap3\n      pop\n      pop\n      pop\n      jump\t// out\n        /* \"#utility.yul\":4637:4977   */\n    tag_58:\n        /* \"#utility.yul\":4693:4698   */\n      0x00\n        /* \"#utility.yul\":4742:4745   */\n      dup3\n        /* \"#utility.yul\":4735:4739   */\n      0x1f\n        /* \"#utility.yul\":4727:4733   */\n      dup4\n        /* \"#utility.yul\":4723:4740   */\n      add\n        /* \"#utility.yul\":4719:4746   */\n      slt\n        /* \"#utility.yul\":4709:4831   */\n      tag_131\n      jumpi\n        /* \"#utility.yul\":4750:4829   */\n      tag_132\n      tag_50\n      jump\t// in\n    tag_132:\n        /* \"#utility.yul\":4709:4831   */\n    tag_131:\n        /* \"#utility.yul\":4867:4873   */\n      dup2\n        /* \"#utility.yul\":4854:4874   */\n      calldataload\n        /* \"#utility.yul\":4892:4971   */\n      tag_133\n        /* \"#utility.yul\":4967:4970   */\n      dup5\n        /* \"#utility.yul\":4959:4965   */\n      dup3\n        /* \"#utility.yul\":4952:4956   */\n      0x20\n        /* \"#utility.yul\":4944:4950   */\n      dup7\n        /* \"#utility.yul\":4940:4957   */\n      add\n        /* \"#utility.yul\":4892:4971   */\n      tag_57\n      jump\t// in\n    tag_133:\n        /* \"#utility.yul\":4883:4971   */\n      swap2\n      pop\n        /* \"#utility.yul\":4699:4977   */\n      pop\n        /* \"#utility.yul\":4637:4977   */\n      swap3\n      swap2\n      pop\n      pop\n      jump\t// out\n        /* \"#utility.yul\":4983:5637   */\n    tag_22:\n        /* \"#utility.yul\":5061:5067   */\n      0x00\n        /* \"#utility.yul\":5069:5075   */\n      dup1\n        /* \"#utility.yul\":5118:5120   */\n      0x40\n        /* \"#utility.yul\":5106:5115   */\n      dup4\n        /* \"#utility.yul\":5097:5104   */\n      dup6\n        /* \"#utility.yul\":5093:5116   */\n      sub\n        /* \"#utility.yul\":5089:5121   */\n      slt\n        /* \"#utility.yul\":5086:5205   */\n      iszero\n      tag_135\n      jumpi\n        /* \"#utility.yul\":5124:5203   */\n      tag_136\n      tag_39\n      jump\t// in\n    tag_136:\n        /* \"#utility.yul\":5086:5205   */\n    tag_135:\n        /* \"#utility.yul\":5272:5273   */\n      0x00\n        /* \"#utility.yul\":5261:5270   */\n      dup4\n        /* \"#utility.yul\":5257:5274   */\n      add\n        /* \"#utility.yul\":5244:5275   */\n      calldataload\n        /* \"#utility.yul\":5302:5320   */\n      0xffffffffffffffff\n        /* \"#utility.yul\":5294:5300   */\n      dup2\n        /* \"#utility.yul\":5291:5321   */\n      gt\n        /* \"#utility.yul\":5288:5405   */\n      iszero\n      tag_137\n      jumpi\n        /* \"#utility.yul\":5324:5403   */\n      tag_138\n      tag_40\n      jump\t// in\n    tag_138:\n        /* \"#utility.yul\":5288:5405   */\n    tag_137:\n        /* \"#utility.yul\":5429:5492   */\n      tag_139\n        /* \"#utility.yul\":5484:5491   */\n      dup6\n        /* \"#utility.yul\":5475:5481   */\n      dup3\n        /* \"#utility.yul\":5464:5473   */\n      dup7\n        /* \"#utility.yul\":5460:5482   */\n      add\n        /* \"#utility.yul\":5429:5492   */\n      tag_58\n      jump\t// in\n    tag_139:\n        /* \"#utility.yul\":5419:5492   */\n      swap3\n      pop\n        /* \"#utility.yul\":5215:5502   */\n      pop\n        /* \"#utility.yul\":5541:5543   */\n      0x20\n        /* \"#utility.yul\":5567:5620   */\n      tag_140\n        /* \"#utility.yul\":5612:5619   */\n      dup6\n        /* \"#utility.yul\":5603:5609   */\n      dup3\n        /* \"#utility.yul\":5592:5601   */\n      dup7\n        /* \"#utility.yul\":5588:5610   */\n      add\n        /* \"#utility.yul\":5567:5620   */\n      tag_43\n      jump\t// in\n    tag_140:\n        /* \"#utility.yul\":5557:5620   */\n      swap2\n      pop\n        /* \"#utility.yul\":5512:5630   */\n      pop\n        /* \"#utility.yul\":4983:5637   */\n      swap3\n      pop\n      swap3\n      swap1\n      pop\n      jump\t// out\n        /* \"#utility.yul\":5643:5823   */\n    tag_59:\n        /* \"#utility.yul\":5691:5768   */\n      0x4e487b7100000000000000000000000000000000000000000000000000000000\n        /* \"#utility.yul\":5688:5689   */\n      0x00\n        /* \"#utility.yul\":5681:5769   */\n      mstore\n        /* \"#utility.yul\":5788:5792   */\n      0x22\n        /* \"#utility.yul\":5785:5786   */\n      0x04\n        /* \"#utility.yul\":5778:5793   */\n      mstore\n        /* \"#utility.yul\":5812:5816   */\n      0x24\n        /* \"#utility.yul\":5809:5810   */\n      0x00\n        /* \"#utility.yul\":5802:5817   */\n      revert\n        /* \"#utility.yul\":5829:6149   */\n    tag_27:\n        /* \"#utility.yul\":5873:5879   */\n      0x00\n        /* \"#utility.yul\":5910:5911   */\n      0x02\n        /* \"#utility.yul\":5904:5908   */\n      dup3\n        /* \"#utility.yul\":5900:5912   */\n      div\n        /* \"#utility.yul\":5890:5912   */\n      swap1\n      pop\n        /* \"#utility.yul\":5957:5958   */\n      0x01\n        /* \"#utility.yul\":5951:5955   */\n      dup3\n        /* \"#utility.yul\":5947:5959   */\n      and\n        /* \"#utility.yul\":5978:5996   */\n      dup1\n        /* \"#utility.yul\":5968:6049   */\n      tag_143\n      jumpi\n        /* \"#utility.yul\":6034:6038   */\n      0x7f\n        /* \"#utility.yul\":6026:6032   */\n      dup3\n        /* \"#utility.yul\":6022:6039   */\n      and\n        /* \"#utility.yul\":6012:6039   */\n      swap2\n      pop\n        /* \"#utility.yul\":5968:6049   */\n    tag_143:\n        /* \"#utility.yul\":6096:6098   */\n      0x20\n        /* \"#utility.yul\":6088:6094   */\n      dup3\n        /* \"#utility.yul\":6085:6099   */\n      lt\n        /* \"#utility.yul\":6065:6083   */\n      dup2\n        /* \"#utility.yul\":6062:6100   */\n      sub\n        /* \"#utility.yul\":6059:6143   */\n      tag_144\n      jumpi\n        /* \"#utility.yul\":6115:6133   */\n      tag_145\n      tag_59\n      jump\t// in\n    tag_145:\n        /* \"#utility.yul\":6059:6143   */\n    tag_144:\n        /* \"#utility.yul\":5880:6149   */\n      pop\n        /* \"#utility.yul\":5829:6149   */\n      swap2\n      swap1\n      pop\n      jump\t// out\n        /* \"#utility.yul\":6155:6296   */\n    tag_60:\n        /* \"#utility.yul\":6204:6208   */\n      0x00\n        /* \"#utility.yul\":6227:6230   */\n      dup2\n        /* \"#utility.yul\":6219:6230   */\n      swap1\n      pop\n        /* \"#utility.yul\":6250:6253   */\n      dup2\n        /* \"#utility.yul\":6247:6248   */\n      0x00\n        /* \"#utility.yul\":6240:6254   */\n      mstore\n        /* \"#utility.yul\":6284:6288   */\n      0x20\n        /* \"#utility.yul\":6281:6282   */\n      0x00\n        /* \"#utility.yul\":6271:6289   */\n      keccak256\n        /* \"#utility.yul\":6263:6289   */\n      swap1\n      pop\n        /* \"#utility.yul\":6155:6296   */\n      swap2\n      swap1\n      pop\n      jump\t// out\n        /* \"#utility.yul\":6302:6395   */\n    tag_61:\n        /* \"#utility.yul\":6339:6345   */\n      0x00\n        /* \"#utility.yul\":6386:6388   */\n      0x20\n        /* \"#utility.yul\":6381:6383   */\n      0x1f\n        /* \"#utility.yul\":6374:6379   */\n      dup4\n        /* \"#utility.yul\":6370:6384   */\n      add\n        /* \"#utility.yul\":6366:6389   */\n      div\n        /* \"#utility.yul\":6356:6389   */\n      swap1\n      pop\n        /* \"#utility.yul\":6302:6395   */\n      swap2\n      swap1\n      pop\n      jump\t// out\n        /* \"#utility.yul\":6401:6508   */\n    tag_62:\n        /* \"#utility.yul\":6445:6453   */\n      0x00\n        /* \"#utility.yul\":6495:6500   */\n      dup3\n        /* \"#utility.yul\":6489:6493   */\n      dup3\n        /* \"#utility.yul\":6485:6501   */\n      shl\n        /* \"#utility.yul\":6464:6501   */\n      swap1\n      pop\n        /* \"#utility.yul\":6401:6508   */\n      swap3\n      swap2\n      pop\n      pop\n      jump\t// out\n        /* \"#utility.yul\":6514:6907   */\n    tag_63:\n        /* \"#utility.yul\":6583:6589   */\n      0x00\n        /* \"#utility.yul\":6633:6634   */\n      0x08\n        /* \"#utility.yul\":6621:6631   */\n      dup4\n        /* \"#utility.yul\":6617:6635   */\n      mul\n        /* \"#utility.yul\":6656:6753   */\n      tag_150\n        /* \"#utility.yul\":6686:6752   */\n      0xffffffffffffffffffffffffffffffffffffffffffffffffffffffffffffffff\n        /* \"#utility.yul\":6675:6684   */\n      dup3\n        /* \"#utility.yul\":6656:6753   */\n      tag_62\n      jump\t// in\n    tag_150:\n        /* \"#utility.yul\":6774:6813   */\n      tag_151\n        /* \"#utility.yul\":6804:6812   */\n      dup7\n        /* \"#utility.yul\":6793:6802   */\n      dup4\n        /* \"#utility.yul\":6774:6813   */\n      tag_62\n      jump\t// in\n    tag_151:\n        /* \"#utility.yul\":6762:6813   */\n      swap6\n      pop\n        /* \"#utility.yul\":6846:6850   */\n      dup1\n        /* \"#utility.yul\":6842:6851   */\n      not\n        /* \"#utility.yul\":6835:6840   */\n      dup5\n        /* \"#utility.yul\":6831:6852   */\n      and\n        /* \"#utility.yul\":6822:6852   */\n      swap4\n      pop\n        /* \"#utility.yul\":6895:6899   */\n      dup1\n        /* \"#utility.yul\":6885:6893   */\n      dup7\n        /* \"#utility.yul\":6881:6900   */\n      and\n        /* \"#utility.yul\":6874:6879   */\n      dup5\n        /* \"#utility.yul\":6871:6901   */\n      or\n        /* \"#utility.yul\":6861:6901   */\n      swap3\n      pop\n        /* \"#utility.yul\":6590:6907   */\n      pop\n      pop\n        /* \"#utility.yul\":6514:6907   */\n      swap4\n      swap3\n      pop\n      pop\n      pop\n      jump\t// out\n        /* \"#utility.yul\":6913:6973   */\n    tag_64:\n        /* \"#utility.yul\":6941:6944   */\n      0x00\n        /* \"#utility.yul\":6962:6967   */\n      dup2\n        /* \"#utility.yul\":6955:6967   */\n      swap1\n      pop\n        /* \"#utility.yul\":6913:6973   */\n      swap2\n      swap1\n      pop\n      jump\t// out\n        /* \"#utility.yul\":6979:7121   */\n    tag_65:\n        /* \"#utility.yul\":7029:7038   */\n      0x00\n        /* \"#utility.yul\":7062:7115   */\n      tag_154\n        /* \"#utility.yul\":7080:7114   */\n      tag_155\n        /* \"#utility.yul\":7089:7113   */\n      tag_156\n        /* \"#utility.yul\":7107:7112   */\n      dup5\n        /* \"#utility.yul\":7089:7113   */\n      tag_41\n      jump\t// in\n    tag_156:\n        /* \"#utility.yul\":7080:7114   */\n      tag_64\n      jump\t// in\n    tag_155:\n        /* \"#utility.yul\":7062:7115   */\n      tag_41\n      jump\t// in\n    tag_154:\n        /* \"#utility.yul\":7049:7115   */\n      swap1\n      pop\n        /* \"#utility.yul\":6979:7121   */\n      swap2\n      swap1\n      pop\n      jump\t// out\n        /* \"#utility.yul\":7127:7202   */\n    tag_66:\n        /* \"#utility.yul\":7170:7173   */\n      0x00\n        /* \"#utility.yul\":7191:7196   */\n      dup2\n        /* \"#utility.yul\":7184:7196   */\n      swap1\n      pop\n        /* \"#utility.yul\":7127:7202   */\n      swap2\n      swap1\n      pop\n      jump\t// out\n        /* \"#utility.yul\":7208:7477   */\n    tag_67:\n        /* \"#utility.yul\":7318:7357   */\n      tag_159\n        /* \"#utility.yul\":7349:7356   */\n      dup4\n        /* \"#utility.yul\":7318:7357   */\n      tag_65\n      jump\t// in\n    tag_159:\n        /* \"#utility.yul\":7379:7470   */\n      tag_160\n        /* \"#utility.yul\":7428:7469   */\n      tag_161\n        /* \"#utility.yul\":7452:7468   */\n      dup3\n        /* \"#utility.yul\":7428:7469   */\n      tag_66\n      jump\t// in\n    tag_161:\n        /* \"#utility.yul\":7420:7426   */\n      dup5\n        /* \"#utility.yul\":7413:7417   */\n      dup5\n        /* \"#utility.yul\":7407:7418   */\n      sload\n        /* \"#utility.yul\":7379:7470   */\n      tag_63\n      jump\t// in\n    tag_160:\n        /* \"#utility.yul\":7373:7377   */\n      dup3\n        /* \"#utility.yul\":7366:7471   */\n      sstore\n        /* \"#utility.yul\":7284:7477   */\n      pop\n        /* \"#utility.yul\":7208:7477   */\n      pop\n      pop\n      pop\n      jump\t// out\n        /* \"#utility.yul\":7483:7556   */\n    tag_68:\n        /* \"#utility.yul\":7528:7531   */\n      0x00\n        /* \"#utility.yul\":7483:7556   */\n      swap1\n      jump\t// out\n        /* \"#utility.yul\":7562:7751   */\n    tag_69:\n        /* \"#utility.yul\":7639:7671   */\n      tag_164\n      tag_68\n      jump\t// in\n    tag_164:\n        /* \"#utility.yul\":7680:7745   */\n      tag_165\n        /* \"#utility.yul\":7738:7744   */\n      dup2\n        /* \"#utility.yul\":7730:7736   */\n      dup5\n        /* \"#utility.yul\":7724:7728   */\n      dup5\n        /* \"#utility.yul\":7680:7745   */\n      tag_67\n      jump\t// in\n    tag_165:\n        /* \"#utility.yul\":7615:7751   */\n      pop\n        /* \"#utility.yul\":7562:7751   */\n      pop\n      pop\n      jump\t// out\n        /* \"#utility.yul\":7757:7943   */\n    tag_70:\n        /* \"#utility.yul\":7817:7937   */\n    tag_167:\n        /* \"#utility.yul\":7834:7837   */\n      dup2\n        /* \"#utility.yul\":7827:7832   */\n      dup2\n        /* \"#utility.yul\":7824:7838   */\n      lt\n        /* \"#utility.yul\":7817:7937   */\n      iszero\n      tag_169\n      jumpi\n        /* \"#utility.yul\":7888:7927   */\n      tag_170\n        /* \"#utility.yul\":7925:7926   */\n      0x00\n        /* \"#utility.yul\":7918:7923   */\n      dup3\n        /* \"#utility.yul\":7888:7927   */\n      tag_69\n      jump\t// in\n    tag_170:\n        /* \"#utility.yul\":7861:7862   */\n      0x01\n        /* \"#utility.yul\":7854:7859   */\n      dup2\n        /* \"#utility.yul\":7850:7863   */\n      add\n        /* \"#utility.yul\":7841:7863   */\n      swap1\n      pop\n        /* \"#utility.yul\":7817:7937   */\n      jump(tag_167)\n    tag_169:\n        /* \"#utility.yul\":7757:7943   */\n      pop\n      pop\n      jump\t// out\n        /* \"#utility.yul\":7949:8492   */\n    tag_71:\n        /* \"#utility.yul\":8050:8052   */\n      0x1f\n        /* \"#utility.yul\":8045:8048   */\n      dup3\n        /* \"#utility.yul\":8042:8053   */\n      gt\n        /* \"#utility.yul\":8039:8485   */\n      iszero\n      tag_172\n      jumpi\n        /* \"#utility.yul\":8084:8122   */\n      tag_173\n        /* \"#utility.yul\":8116:8121   */\n      dup2\n        /* \"#utility.yul\":8084:8122   */\n      tag_60\n      jump\t// in\n    tag_173:\n        /* \"#utility.yul\":8168:8197   */\n      tag_174\n        /* \"#utility.yul\":8186:8196   */\n      dup5\n        /* \"#utility.yul\":8168:8197   */\n      tag_61\n      jump\t// in\n    tag_174:\n        /* \"#utility.yul\":8158:8166   */\n      dup2\n        /* \"#utility.yul\":8154:8198   */\n      add\n        /* \"#utility.yul\":8351:8353   */\n      0x20\n        /* \"#utility.yul\":8339:8349   */\n      dup6\n        /* \"#utility.yul\":8336:8354   */\n      lt\n        /* \"#utility.yul\":8333:8382   */\n      iszero\n      tag_175\n      jumpi\n        /* \"#utility.yul\":8372:8380   */\n      dup2\n        /* \"#utility.yul\":8357:8380   */\n      swap1\n      pop\n        /* \"#utility.yul\":8333:8382   */\n    tag_175:\n        /* \"#utility.yul\":8395:8475   */\n      tag_176\n        /* \"#utility.yul\":8451:8473   */\n      tag_177\n        /* \"#utility.yul\":8469:8472   */\n      dup6\n        /* \"#utility.yul\":8451:8473   */\n      tag_61\n      jump\t// in\n    tag_177:\n        /* \"#utility.yul\":8441:8449   */\n      dup4\n        /* \"#utility.yul\":8437:8474   */\n      add\n        /* \"#utility.yul\":8424:8435   */\n      dup3\n        /* \"#utility.yul\":8395:8475   */\n      tag_70\n      jump\t// in\n    tag_176:\n        /* \"#utility.yul\":8054:8485   */\n      pop\n      pop\n        /* \"#utility.yul\":8039:8485   */\n    tag_172:\n        /* \"#utility.yul\":7949:8492   */\n      pop\n      pop\n      pop\n      jump\t// out\n        /* \"#utility.yul\":8498:8615   */\n    tag_72:\n        /* \"#utility.yul\":8552:8560   */\n      0x00\n        /* \"#utility.yul\":8602:8607   */\n      dup3\n        /* \"#utility.yul\":8596:8600   */\n      dup3\n        /* \"#utility.yul\":8592:8608   */\n      shr\n        /* \"#utility.yul\":8571:8608   */\n      swap1\n      pop\n        /* \"#utility.yul\":8498:8615   */\n      swap3\n      swap2\n      pop\n      pop\n      jump\t// out\n        /* \"#utility.yul\":8621:8790   */\n    tag_73:\n        /* \"#utility.yul\":8665:8671   */\n      0x00\n        /* \"#utility.yul\":8698:8749   */\n      tag_180\n        /* \"#utility.yul\":8746:8747   */\n      0x00\n        /* \"#utility.yul\":8742:8748   */\n      not\n        /* \"#utility.yul\":8734:8739   */\n      dup5\n        /* \"#utility.yul\":8731:8732   */\n      0x08\n        /* \"#utility.yul\":8727:8740   */\n      mul\n        /* \"#utility.yul\":8698:8749   */\n      tag_72\n      jump\t// in\n    tag_180:\n        /* \"#utility.yul\":8694:8750   */\n      not\n        /* \"#utility.yul\":8779:8783   */\n      dup1\n        /* \"#utility.yul\":8773:8777   */\n      dup4\n        /* \"#utility.yul\":8769:8784   */\n      and\n        /* \"#utility.yul\":8759:8784   */\n      swap2\n      pop\n        /* \"#utility.yul\":8672:8790   */\n      pop\n        /* \"#utility.yul\":8621:8790   */\n      swap3\n      swap2\n      pop\n      pop\n      jump\t// out\n        /* \"#utility.yul\":8795:9090   */\n    tag_74:\n        /* \"#utility.yul\":8871:8875   */\n      0x00\n        /* \"#utility.yul\":9017:9046   */\n      tag_182\n        /* \"#utility.yul\":9042:9045   */\n      dup4\n        /* \"#utility.yul\":9036:9040   */\n      dup4\n        /* \"#utility.yul\":9017:9046   */\n      tag_73\n      jump\t// in\n    tag_182:\n        /* \"#utility.yul\":9009:9046   */\n      swap2\n      pop\n        /* \"#utility.yul\":9079:9082   */\n      dup3\n        /* \"#utility.yul\":9076:9077   */\n      0x02\n        /* \"#utility.yul\":9072:9083   */\n      mul\n        /* \"#utility.yul\":9066:9070   */\n      dup3\n        /* \"#utility.yul\":9063:9084   */\n      or\n        /* \"#utility.yul\":9055:9084   */\n      swap1\n      pop\n        /* \"#utility.yul\":8795:9090   */\n      swap3\n      swap2\n      pop\n      pop\n      jump\t// out\n        /* \"#utility.yul\":9095:10490   */\n    tag_37:\n        /* \"#utility.yul\":9212:9249   */\n      tag_184\n        /* \"#utility.yul\":9245:9248   */\n      dup3\n        /* \"#utility.yul\":9212:9249   */\n      tag_45\n      jump\t// in\n    tag_184:\n        /* \"#utility.yul\":9314:9332   */\n      0xffffffffffffffff\n        /* \"#utility.yul\":9306:9312   */\n      dup2\n        /* \"#utility.yul\":9303:9333   */\n      gt\n        /* \"#utility.yul\":9300:9356   */\n      iszero\n      tag_185\n      jumpi\n        /* \"#utility.yul\":9336:9354   */\n      tag_186\n      tag_52\n      jump\t// in\n    tag_186:\n        /* \"#utility.yul\":9300:9356   */\n    tag_185:\n        /* \"#utility.yul\":9380:9418   */\n      tag_187\n        /* \"#utility.yul\":9412:9416   */\n      dup3\n        /* \"#utility.yul\":9406:9417   */\n      sload\n        /* \"#utility.yul\":9380:9418   */\n      tag_27\n      jump\t// in\n    tag_187:\n        /* \"#utility.yul\":9465:9532   */\n      tag_188\n        /* \"#utility.yul\":9525:9531   */\n      dup3\n        /* \"#utility.yul\":9517:9523   */\n      dup3\n        /* \"#utility.yul\":9511:9515   */\n      dup6\n        /* \"#utility.yul\":9465:9532   */\n      tag_71\n      jump\t// in\n    tag_188:\n        /* \"#utility.yul\":9559:9560   */\n      0x00\n        /* \"#utility.yul\":9583:9587   */\n      0x20\n        /* \"#utility.yul\":9570:9587   */\n      swap1\n      pop\n        /* \"#utility.yul\":9615:9617   */\n      0x1f\n        /* \"#utility.yul\":9607:9613   */\n      dup4\n        /* \"#utility.yul\":9604:9618   */\n      gt\n        /* \"#utility.yul\":9632:9633   */\n      0x01\n        /* \"#utility.yul\":9627:10245   */\n      dup2\n      eq\n      tag_190\n      jumpi\n        /* \"#utility.yul\":10289:10290   */\n      0x00\n        /* \"#utility.yul\":10306:10312   */\n      dup5\n        /* \"#utility.yul\":10303:10380   */\n      iszero\n      tag_191\n      jumpi\n        /* \"#utility.yul\":10355:10364   */\n      dup3\n        /* \"#utility.yul\":10350:10353   */\n      dup8\n        /* \"#utility.yul\":10346:10365   */\n      add\n        /* \"#utility.yul\":10340:10366   */\n      mload\n        /* \"#utility.yul\":10331:10366   */\n      swap1\n      pop\n        /* \"#utility.yul\":10303:10380   */\n    tag_191:\n        /* \"#utility.yul\":10406:10473   */\n      tag_192\n        /* \"#utility.yul\":10466:10472   */\n      dup6\n        /* \"#utility.yul\":10459:10464   */\n      dup3\n        /* \"#utility.yul\":10406:10473   */\n      tag_74\n      jump\t// in\n    tag_192:\n        /* \"#utility.yul\":10400:10404   */\n      dup7\n        /* \"#utility.yul\":10393:10474   */\n      sstore\n        /* \"#utility.yul\":10262:10484   */\n      pop\n        /* \"#utility.yul\":9597:10484   */\n      jump(tag_189)\n        /* \"#utility.yul\":9627:10245   */\n    tag_190:\n        /* \"#utility.yul\":9679:9683   */\n      0x1f\n        /* \"#utility.yul\":9675:9684   */\n      not\n        /* \"#utility.yul\":9667:9673   */\n      dup5\n        /* \"#utility.yul\":9663:9685   */\n      and\n        /* \"#utility.yul\":9713:9750   */\n      tag_193\n        /* \"#utility.yul\":9745:9749   */\n      dup7\n        /* \"#utility.yul\":9713:9750   */\n      tag_60\n      jump\t// in\n    tag_193:\n        /* \"#utility.yul\":9772:9773   */\n      0x00\n        /* \"#utility.yul\":9786:9994   */\n    tag_194:\n        /* \"#utility.yul\":9800:9807   */\n      dup3\n        /* \"#utility.yul\":9797:9798   */\n      dup2\n        /* \"#utility.yul\":9794:9808   */\n      lt\n        /* \"#utility.yul\":9786:9994   */\n      iszero\n      tag_196\n      jumpi\n        /* \"#utility.yul\":9879:9888   */\n      dup5\n        /* \"#utility.yul\":9874:9877   */\n      dup10\n        /* \"#utility.yul\":9870:9889   */\n      add\n        /* \"#utility.yul\":9864:9890   */\n      mload\n        /* \"#utility.yul\":9856:9862   */\n      dup3\n        /* \"#utility.yul\":9849:9891   */\n      sstore\n        /* \"#utility.yul\":9930:9931   */\n      0x01\n        /* \"#utility.yul\":9922:9928   */\n      dup3\n        /* \"#utility.yul\":9918:9932   */\n      add\n        /* \"#utility.yul\":9908:9932   */\n      swap2\n      pop\n        /* \"#utility.yul\":9977:9979   */\n      0x20\n        /* \"#utility.yul\":9966:9975   */\n      dup6\n        /* \"#utility.yul\":9962:9980   */\n      add\n        /* \"#utility.yul\":9949:9980   */\n      swap5\n      pop\n        /* \"#utility.yul\":9823:9827   */\n      0x20\n        /* \"#utility.yul\":9820:9821   */\n      dup2\n        /* \"#utility.yul\":9816:9828   */\n      add\n        /* \"#utility.yul\":9811:9828   */\n      swap1\n      pop\n        /* \"#utility.yul\":9786:9994   */\n      jump(tag_194)\n    tag_196:\n        /* \"#utility.yul\":10022:10028   */\n      dup7\n        /* \"#utility.yul\":10013:10020   */\n      dup4\n        /* \"#utility.yul\":10010:10029   */\n      lt\n        /* \"#utility.yul\":10007:10186   */\n      iszero\n      tag_197\n      jumpi\n        /* \"#utility.yul\":10080:10089   */\n      dup5\n        /* \"#utility.yul\":10075:10078   */\n      dup10\n        /* \"#utility.yul\":10071:10090   */\n      add\n        /* \"#utility.yul\":10065:10091   */\n      mload\n        /* \"#utility.yul\":10123:10171   */\n      tag_198\n        /* \"#utility.yul\":10165:10169   */\n      0x1f\n        /* \"#utility.yul\":10157:10163   */\n      dup10\n        /* \"#utility.yul\":10153:10170   */\n      and\n        /* \"#utility.yul\":10142:10151   */\n      dup3\n        /* \"#utility.yul\":10123:10171   */\n      tag_73\n      jump\t// in\n    tag_198:\n        /* \"#utility.yul\":10115:10121   */\n      dup4\n        /* \"#utility.yul\":10108:10172   */\n      sstore\n        /* \"#utility.yul\":10030:10186   */\n      pop\n        /* \"#utility.yul\":10007:10186   */\n    tag_197:\n        /* \"#utility.yul\":10232:10233   */\n      0x01\n        /* \"#utility.yul\":10228:10229   */\n      0x02\n        /* \"#utility.yul\":10220:10226   */\n      dup9\n        /* \"#utility.yul\":10216:10230   */\n      mul\n        /* \"#utility.yul\":10212:10234   */\n      add\n        /* \"#utility.yul\":10206:10210   */\n      dup9\n        /* \"#utility.yul\":10199:10235   */\n      sstore\n        /* \"#utility.yul\":9634:10245   */\n      pop\n      pop\n      pop\n        /* \"#utility.yul\":9597:10484   */\n    tag_189:\n      pop\n        /* \"#utility.yul\":9187:10490   */\n      pop\n      pop\n      pop\n        /* \"#utility.yul\":9095:10490   */\n      pop\n      pop\n      jump\t// out\n\n    auxdata: 0xa26469706673582212200728f44745f5e68844a773f732aee54d19ec12cc8b76f8b95849fd0b470bd14364736f6c634300080f0033\n}\n",
				"bytecode": {
					"linkReferences": {},
					"object": "608060405234801561001057600080fd5b5061081c806100206000396000f3fe608060405234801561001057600080fd5b506004361061004c5760003560e01c8063092a1820146100515780632e64cec1146100825780636057361d146100a05780636f760f41146100bc575b600080fd5b61006b60048036038101906100669190610257565b6100d8565b60405161007992919061032c565b60405180910390f35b61008a610194565b604051610097919061035c565b60405180910390f35b6100ba60048036038101906100b59190610257565b61019d565b005b6100d660048036038101906100d191906104ac565b6101a7565b005b600181815481106100e857600080fd5b906000526020600020906002020160009150905080600001549080600101805461011190610537565b80601f016020809104026020016040519081016040528092919081815260200182805461013d90610537565b801561018a5780601f1061015f5761010080835404028352916020019161018a565b820191906000526020600020905b81548152906001019060200180831161016d57829003601f168201915b5050505050905082565b60008054905090565b8060008190555050565b600160405180604001604052808381526020018481525090806001815401808255809150506001900390600052602060002090600202016000909190919091506000820151816000015560208201518160010190816102069190610714565b5050505050565b6000604051905090565b600080fd5b600080fd5b6000819050919050565b61023481610221565b811461023f57600080fd5b50565b6000813590506102518161022b565b92915050565b60006020828403121561026d5761026c610217565b5b600061027b84828501610242565b91505092915050565b61028d81610221565b82525050565b600081519050919050565b600082825260208201905092915050565b60005b838110156102cd5780820151818401526020810190506102b2565b838111156102dc576000848401525b50505050565b6000601f19601f8301169050919050565b60006102fe82610293565b610308818561029e565b93506103188185602086016102af565b610321816102e2565b840191505092915050565b60006040820190506103416000830185610284565b818103602083015261035381846102f3565b90509392505050565b60006020820190506103716000830184610284565b92915050565b600080fd5b600080fd5b7f4e487b7100000000000000000000000000000000000000000000000000000000600052604160045260246000fd5b6103b9826102e2565b810181811067ffffffffffffffff821117156103d8576103d7610381565b5b80604052505050565b60006103eb61020d565b90506103f782826103b0565b919050565b600067ffffffffffffffff82111561041757610416610381565b5b610420826102e2565b9050602081019050919050565b82818337600083830152505050565b600061044f61044a846103fc565b6103e1565b90508281526020810184848401111561046b5761046a61037c565b5b61047684828561042d565b509392505050565b600082601f83011261049357610492610377565b5b81356104a384826020860161043c565b91505092915050565b600080604083850312156104c3576104c2610217565b5b600083013567ffffffffffffffff8111156104e1576104e061021c565b5b6104ed8582860161047e565b92505060206104fe85828601610242565b9150509250929050565b7f4e487b7100000000000000000000000000000000000000000000000000000000600052602260045260246000fd5b6000600282049050600182168061054f57607f821691505b60208210810361056257610561610508565b5b50919050565b60008190508160005260206000209050919050565b60006020601f8301049050919050565b600082821b905092915050565b6000600883026105ca7fffffffffffffffffffffffffffffffffffffffffffffffffffffffffffffffff8261058d565b6105d4868361058d565b95508019841693508086168417925050509392505050565b6000819050919050565b600061061161060c61060784610221565b6105ec565b610221565b9050919050565b6000819050919050565b61062b836105f6565b61063f61063782610618565b84845461059a565b825550505050565b600090565b610654610647565b61065f818484610622565b505050565b5b818110156106835761067860008261064c565b600181019050610665565b5050565b601f8211156106c85761069981610568565b6106a28461057d565b810160208510156106b1578190505b6106c56106bd8561057d565b830182610664565b50505b505050565b600082821c905092915050565b60006106eb600019846008026106cd565b1980831691505092915050565b600061070483836106da565b9150826002028217905092915050565b61071d82610293565b67ffffffffffffffff81111561073657610735610381565b5b6107408254610537565b61074b828285610687565b600060209050601f83116001811461077e576000841561076c578287015190505b61077685826106f8565b8655506107de565b601f19841661078c86610568565b60005b828110156107b45784890151825560018201915060208501945060208101905061078f565b868310156107d157848901516107cd601f8916826106da565b8355505b6001600288020188555050505b50505050505056fea26469706673582212200728f44745f5e68844a773f732aee54d19ec12cc8b76f8b95849fd0b470bd14364736f6c634300080f0033",
					"opcodes": "PUSH1 0x80 PUSH1 0x40 MSTORE CALLVALUE DUP1 ISZERO PUSH2 0x10 JUMPI PUSH1 0x0 DUP1 REVERT JUMPDEST POP PUSH2 0x81C DUP1 PUSH2 0x20 PUSH1 0x0 CODECOPY PUSH1 0x0 RETURN INVALID PUSH1 0x80 PUSH1 0x40 MSTORE CALLVALUE DUP1 ISZERO PUSH2 0x10 JUMPI PUSH1 0x0 DUP1 REVERT JUMPDEST POP PUSH1 0x4 CALLDATASIZE LT PUSH2 0x4C JUMPI PUSH1 0x0 CALLDATALOAD PUSH1 0xE0 SHR DUP1 PUSH4 0x92A1820 EQ PUSH2 0x51 JUMPI DUP1 PUSH4 0x2E64CEC1 EQ PUSH2 0x82 JUMPI DUP1 PUSH4 0x6057361D EQ PUSH2 0xA0 JUMPI DUP1 PUSH4 0x6F760F41 EQ PUSH2 0xBC JUMPI JUMPDEST PUSH1 0x0 DUP1 REVERT JUMPDEST PUSH2 0x6B PUSH1 0x4 DUP1 CALLDATASIZE SUB DUP2 ADD SWAP1 PUSH2 0x66 SWAP2 SWAP1 PUSH2 0x257 JUMP JUMPDEST PUSH2 0xD8 JUMP JUMPDEST PUSH1 0x40 MLOAD PUSH2 0x79 SWAP3 SWAP2 SWAP1 PUSH2 0x32C JUMP JUMPDEST PUSH1 0x40 MLOAD DUP1 SWAP2 SUB SWAP1 RETURN JUMPDEST PUSH2 0x8A PUSH2 0x194 JUMP JUMPDEST PUSH1 0x40 MLOAD PUSH2 0x97 SWAP2 SWAP1 PUSH2 0x35C JUMP JUMPDEST PUSH1 0x40 MLOAD DUP1 SWAP2 SUB SWAP1 RETURN JUMPDEST PUSH2 0xBA PUSH1 0x4 DUP1 CALLDATASIZE SUB DUP2 ADD SWAP1 PUSH2 0xB5 SWAP2 SWAP1 PUSH2 0x257 JUMP JUMPDEST PUSH2 0x19D JUMP JUMPDEST STOP JUMPDEST PUSH2 0xD6 PUSH1 0x4 DUP1 CALLDATASIZE SUB DUP2 ADD SWAP1 PUSH2 0xD1 SWAP2 SWAP1 PUSH2 0x4AC JUMP JUMPDEST PUSH2 0x1A7 JUMP JUMPDEST STOP JUMPDEST PUSH1 0x1 DUP2 DUP2 SLOAD DUP2 LT PUSH2 0xE8 JUMPI PUSH1 0x0 DUP1 REVERT JUMPDEST SWAP1 PUSH1 0x0 MSTORE PUSH1 0x20 PUSH1 0x0 KECCAK256 SWAP1 PUSH1 0x2 MUL ADD PUSH1 0x0 SWAP2 POP SWAP1 POP DUP1 PUSH1 0x0 ADD SLOAD SWAP1 DUP1 PUSH1 0x1 ADD DUP1 SLOAD PUSH2 0x111 SWAP1 PUSH2 0x537 JUMP JUMPDEST DUP1 PUSH1 0x1F ADD PUSH1 0x20 DUP1 SWAP2 DIV MUL PUSH1 0x20 ADD PUSH1 0x40 MLOAD SWAP1 DUP2 ADD PUSH1 0x40 MSTORE DUP1 SWAP3 SWAP2 SWAP1 DUP2 DUP2 MSTORE PUSH1 0x20 ADD DUP3 DUP1 SLOAD PUSH2 0x13D SWAP1 PUSH2 0x537 JUMP JUMPDEST DUP1 ISZERO PUSH2 0x18A JUMPI DUP1 PUSH1 0x1F LT PUSH2 0x15F JUMPI PUSH2 0x100 DUP1 DUP4 SLOAD DIV MUL DUP4 MSTORE SWAP2 PUSH1 0x20 ADD SWAP2 PUSH2 0x18A JUMP JUMPDEST DUP3 ADD SWAP2 SWAP1 PUSH1 0x0 MSTORE PUSH1 0x20 PUSH1 0x0 KECCAK256 SWAP1 JUMPDEST DUP2 SLOAD DUP2 MSTORE SWAP1 PUSH1 0x1 ADD SWAP1 PUSH1 0x20 ADD DUP1 DUP4 GT PUSH2 0x16D JUMPI DUP3 SWAP1 SUB PUSH1 0x1F AND DUP3 ADD SWAP2 JUMPDEST POP POP POP POP POP SWAP1 POP DUP3 JUMP JUMPDEST PUSH1 0x0 DUP1 SLOAD SWAP1 POP SWAP1 JUMP JUMPDEST DUP1 PUSH1 0x0 DUP2 SWAP1 SSTORE POP POP JUMP JUMPDEST PUSH1 0x1 PUSH1 0x40 MLOAD DUP1 PUSH1 0x40 ADD PUSH1 0x40 MSTORE DUP1 DUP4 DUP2 MSTORE PUSH1 0x20 ADD DUP5 DUP2 MSTORE POP SWAP1 DUP1 PUSH1 0x1 DUP2 SLOAD ADD DUP1 DUP3 SSTORE DUP1 SWAP2 POP POP PUSH1 0x1 SWAP1 SUB SWAP1 PUSH1 0x0 MSTORE PUSH1 0x20 PUSH1 0x0 KECCAK256 SWAP1 PUSH1 0x2 MUL ADD PUSH1 0x0 SWAP1 SWAP2 SWAP1 SWAP2 SWAP1 SWAP2 POP PUSH1 0x0 DUP3 ADD MLOAD DUP2 PUSH1 0x0 ADD SSTORE PUSH1 0x20 DUP3 ADD MLOAD DUP2 PUSH1 0x1 ADD SWAP1 DUP2 PUSH2 0x206 SWAP2 SWAP1 PUSH2 0x714 JUMP JUMPDEST POP POP POP POP POP JUMP JUMPDEST PUSH1 0x0 PUSH1 0x40 MLOAD SWAP1 POP SWAP1 JUMP JUMPDEST PUSH1 0x0 DUP1 REVERT JUMPDEST PUSH1 0x0 DUP1 REVERT JUMPDEST PUSH1 0x0 DUP2 SWAP1 POP SWAP2 SWAP1 POP JUMP JUMPDEST PUSH2 0x234 DUP2 PUSH2 0x221 JUMP JUMPDEST DUP2 EQ PUSH2 0x23F JUMPI PUSH1 0x0 DUP1 REVERT JUMPDEST POP JUMP JUMPDEST PUSH1 0x0 DUP2 CALLDATALOAD SWAP1 POP PUSH2 0x251 DUP2 PUSH2 0x22B JUMP JUMPDEST SWAP3 SWAP2 POP POP JUMP JUMPDEST PUSH1 0x0 PUSH1 0x20 DUP3 DUP5 SUB SLT ISZERO PUSH2 0x26D JUMPI PUSH2 0x26C PUSH2 0x217 JUMP JUMPDEST JUMPDEST PUSH1 0x0 PUSH2 0x27B DUP5 DUP3 DUP6 ADD PUSH2 0x242 JUMP JUMPDEST SWAP2 POP POP SWAP3 SWAP2 POP POP JUMP JUMPDEST PUSH2 0x28D DUP2 PUSH2 0x221 JUMP JUMPDEST DUP3 MSTORE POP POP JUMP JUMPDEST PUSH1 0x0 DUP2 MLOAD SWAP1 POP SWAP2 SWAP1 POP JUMP JUMPDEST PUSH1 0x0 DUP3 DUP3 MSTORE PUSH1 0x20 DUP3 ADD SWAP1 POP SWAP3 SWAP2 POP POP JUMP JUMPDEST PUSH1 0x0 JUMPDEST DUP4 DUP2 LT ISZERO PUSH2 0x2CD JUMPI DUP1 DUP3 ADD MLOAD DUP2 DUP5 ADD MSTORE PUSH1 0x20 DUP2 ADD SWAP1 POP PUSH2 0x2B2 JUMP JUMPDEST DUP4 DUP2 GT ISZERO PUSH2 0x2DC JUMPI PUSH1 0x0 DUP5 DUP5 ADD MSTORE JUMPDEST POP POP POP POP JUMP JUMPDEST PUSH1 0x0 PUSH1 0x1F NOT PUSH1 0x1F DUP4 ADD AND SWAP1 POP SWAP2 SWAP1 POP JUMP JUMPDEST PUSH1 0x0 PUSH2 0x2FE DUP3 PUSH2 0x293 JUMP JUMPDEST PUSH2 0x308 DUP2 DUP6 PUSH2 0x29E JUMP JUMPDEST SWAP4 POP PUSH2 0x318 DUP2 DUP6 PUSH1 0x20 DUP7 ADD PUSH2 0x2AF JUMP JUMPDEST PUSH2 0x321 DUP2 PUSH2 0x2E2 JUMP JUMPDEST DUP5 ADD SWAP2 POP POP SWAP3 SWAP2 POP POP JUMP JUMPDEST PUSH1 0x0 PUSH1 0x40 DUP3 ADD SWAP1 POP PUSH2 0x341 PUSH1 0x0 DUP4 ADD DUP6 PUSH2 0x284 JUMP JUMPDEST DUP2 DUP2 SUB PUSH1 0x20 DUP4 ADD MSTORE PUSH2 0x353 DUP2 DUP5 PUSH2 0x2F3 JUMP JUMPDEST SWAP1 POP SWAP4 SWAP3 POP POP POP JUMP JUMPDEST PUSH1 0x0 PUSH1 0x20 DUP3 ADD SWAP1 POP PUSH2 0x371 PUSH1 0x0 DUP4 ADD DUP5 PUSH2 0x284 JUMP JUMPDEST SWAP3 SWAP2 POP POP JUMP JUMPDEST PUSH1 0x0 DUP1 REVERT JUMPDEST PUSH1 0x0 DUP1 REVERT JUMPDEST PUSH32 0x4E487B7100000000000000000000000000000000000000000000000000000000 PUSH1 0x0 MSTORE PUSH1 0x41 PUSH1 0x4 MSTORE PUSH1 0x24 PUSH1 0x0 REVERT JUMPDEST PUSH2 0x3B9 DUP3 PUSH2 0x2E2 JUMP JUMPDEST DUP2 ADD DUP2 DUP2 LT PUSH8 0xFFFFFFFFFFFFFFFF DUP3 GT OR ISZERO PUSH2 0x3D8 JUMPI PUSH2 0x3D7 PUSH2 0x381 JUMP JUMPDEST JUMPDEST DUP1 PUSH1 0x40 MSTORE POP POP POP JUMP JUMPDEST PUSH1 0x0 PUSH2 0x3EB PUSH2 0x20D JUMP JUMPDEST SWAP1 POP PUSH2 0x3F7 DUP3 DUP3 PUSH2 0x3B0 JUMP JUMPDEST SWAP2 SWAP1 POP JUMP JUMPDEST PUSH1 0x0 PUSH8 0xFFFFFFFFFFFFFFFF DUP3 GT ISZERO PUSH2 0x417 JUMPI PUSH2 0x416 PUSH2 0x381 JUMP JUMPDEST JUMPDEST PUSH2 0x420 DUP3 PUSH2 0x2E2 JUMP JUMPDEST SWAP1 POP PUSH1 0x20 DUP2 ADD SWAP1 POP SWAP2 SWAP1 POP JUMP JUMPDEST DUP3 DUP2 DUP4 CALLDATACOPY PUSH1 0x0 DUP4 DUP4 ADD MSTORE POP POP POP JUMP JUMPDEST PUSH1 0x0 PUSH2 0x44F PUSH2 0x44A DUP5 PUSH2 0x3FC JUMP JUMPDEST PUSH2 0x3E1 JUMP JUMPDEST SWAP1 POP DUP3 DUP2 MSTORE PUSH1 0x20 DUP2 ADD DUP5 DUP5 DUP5 ADD GT ISZERO PUSH2 0x46B JUMPI PUSH2 0x46A PUSH2 0x37C JUMP JUMPDEST JUMPDEST PUSH2 0x476 DUP5 DUP3 DUP6 PUSH2 0x42D JUMP JUMPDEST POP SWAP4 SWAP3 POP POP POP JUMP JUMPDEST PUSH1 0x0 DUP3 PUSH1 0x1F DUP4 ADD SLT PUSH2 0x493 JUMPI PUSH2 0x492 PUSH2 0x377 JUMP JUMPDEST JUMPDEST DUP2 CALLDATALOAD PUSH2 0x4A3 DUP5 DUP3 PUSH1 0x20 DUP7 ADD PUSH2 0x43C JUMP JUMPDEST SWAP2 POP POP SWAP3 SWAP2 POP POP JUMP JUMPDEST PUSH1 0x0 DUP1 PUSH1 0x40 DUP4 DUP6 SUB SLT ISZERO PUSH2 0x4C3 JUMPI PUSH2 0x4C2 PUSH2 0x217 JUMP JUMPDEST JUMPDEST PUSH1 0x0 DUP4 ADD CALLDATALOAD PUSH8 0xFFFFFFFFFFFFFFFF DUP2 GT ISZERO PUSH2 0x4E1 JUMPI PUSH2 0x4E0 PUSH2 0x21C JUMP JUMPDEST JUMPDEST PUSH2 0x4ED DUP6 DUP3 DUP7 ADD PUSH2 0x47E JUMP JUMPDEST SWAP3 POP POP PUSH1 0x20 PUSH2 0x4FE DUP6 DUP3 DUP7 ADD PUSH2 0x242 JUMP JUMPDEST SWAP2 POP POP SWAP3 POP SWAP3 SWAP1 POP JUMP JUMPDEST PUSH32 0x4E487B7100000000000000000000000000000000000000000000000000000000 PUSH1 0x0 MSTORE PUSH1 0x22 PUSH1 0x4 MSTORE PUSH1 0x24 PUSH1 0x0 REVERT JUMPDEST PUSH1 0x0 PUSH1 0x2 DUP3 DIV SWAP1 POP PUSH1 0x1 DUP3 AND DUP1 PUSH2 0x54F JUMPI PUSH1 0x7F DUP3 AND SWAP2 POP JUMPDEST PUSH1 0x20 DUP3 LT DUP2 SUB PUSH2 0x562 JUMPI PUSH2 0x561 PUSH2 0x508 JUMP JUMPDEST JUMPDEST POP SWAP2 SWAP1 POP JUMP JUMPDEST PUSH1 0x0 DUP2 SWAP1 POP DUP2 PUSH1 0x0 MSTORE PUSH1 0x20 PUSH1 0x0 KECCAK256 SWAP1 POP SWAP2 SWAP1 POP JUMP JUMPDEST PUSH1 0x0 PUSH1 0x20 PUSH1 0x1F DUP4 ADD DIV SWAP1 POP SWAP2 SWAP1 POP JUMP JUMPDEST PUSH1 0x0 DUP3 DUP3 SHL SWAP1 POP SWAP3 SWAP2 POP POP JUMP JUMPDEST PUSH1 0x0 PUSH1 0x8 DUP4 MUL PUSH2 0x5CA PUSH32 0xFFFFFFFFFFFFFFFFFFFFFFFFFFFFFFFFFFFFFFFFFFFFFFFFFFFFFFFFFFFFFFFF DUP3 PUSH2 0x58D JUMP JUMPDEST PUSH2 0x5D4 DUP7 DUP4 PUSH2 0x58D JUMP JUMPDEST SWAP6 POP DUP1 NOT DUP5 AND SWAP4 POP DUP1 DUP7 AND DUP5 OR SWAP3 POP POP POP SWAP4 SWAP3 POP POP POP JUMP JUMPDEST PUSH1 0x0 DUP2 SWAP1 POP SWAP2 SWAP1 POP JUMP JUMPDEST PUSH1 0x0 PUSH2 0x611 PUSH2 0x60C PUSH2 0x607 DUP5 PUSH2 0x221 JUMP JUMPDEST PUSH2 0x5EC JUMP JUMPDEST PUSH2 0x221 JUMP JUMPDEST SWAP1 POP SWAP2 SWAP1 POP JUMP JUMPDEST PUSH1 0x0 DUP2 SWAP1 POP SWAP2 SWAP1 POP JUMP JUMPDEST PUSH2 0x62B DUP4 PUSH2 0x5F6 JUMP JUMPDEST PUSH2 0x63F PUSH2 0x637 DUP3 PUSH2 0x618 JUMP JUMPDEST DUP5 DUP5 SLOAD PUSH2 0x59A JUMP JUMPDEST DUP3 SSTORE POP POP POP POP JUMP JUMPDEST PUSH1 0x0 SWAP1 JUMP JUMPDEST PUSH2 0x654 PUSH2 0x647 JUMP JUMPDEST PUSH2 0x65F DUP2 DUP5 DUP5 PUSH2 0x622 JUMP JUMPDEST POP POP POP JUMP JUMPDEST JUMPDEST DUP2 DUP2 LT ISZERO PUSH2 0x683 JUMPI PUSH2 0x678 PUSH1 0x0 DUP3 PUSH2 0x64C JUMP JUMPDEST PUSH1 0x1 DUP2 ADD SWAP1 POP PUSH2 0x665 JUMP JUMPDEST POP POP JUMP JUMPDEST PUSH1 0x1F DUP3 GT ISZERO PUSH2 0x6C8 JUMPI PUSH2 0x699 DUP2 PUSH2 0x568 JUMP JUMPDEST PUSH2 0x6A2 DUP5 PUSH2 0x57D JUMP JUMPDEST DUP2 ADD PUSH1 0x20 DUP6 LT ISZERO PUSH2 0x6B1 JUMPI DUP2 SWAP1 POP JUMPDEST PUSH2 0x6C5 PUSH2 0x6BD DUP6 PUSH2 0x57D JUMP JUMPDEST DUP4 ADD DUP3 PUSH2 0x664 JUMP JUMPDEST POP POP JUMPDEST POP POP POP JUMP JUMPDEST PUSH1 0x0 DUP3 DUP3 SHR SWAP1 POP SWAP3 SWAP2 POP POP JUMP JUMPDEST PUSH1 0x0 PUSH2 0x6EB PUSH1 0x0 NOT DUP5 PUSH1 0x8 MUL PUSH2 0x6CD JUMP JUMPDEST NOT DUP1 DUP4 AND SWAP2 POP POP SWAP3 SWAP2 POP POP JUMP JUMPDEST PUSH1 0x0 PUSH2 0x704 DUP4 DUP4 PUSH2 0x6DA JUMP JUMPDEST SWAP2 POP DUP3 PUSH1 0x2 MUL DUP3 OR SWAP1 POP SWAP3 SWAP2 POP POP JUMP JUMPDEST PUSH2 0x71D DUP3 PUSH2 0x293 JUMP JUMPDEST PUSH8 0xFFFFFFFFFFFFFFFF DUP2 GT ISZERO PUSH2 0x736 JUMPI PUSH2 0x735 PUSH2 0x381 JUMP JUMPDEST JUMPDEST PUSH2 0x740 DUP3 SLOAD PUSH2 0x537 JUMP JUMPDEST PUSH2 0x74B DUP3 DUP3 DUP6 PUSH2 0x687 JUMP JUMPDEST PUSH1 0x0 PUSH1 0x20 SWAP1 POP PUSH1 0x1F DUP4 GT PUSH1 0x1 DUP2 EQ PUSH2 0x77E JUMPI PUSH1 0x0 DUP5 ISZERO PUSH2 0x76C JUMPI DUP3 DUP8 ADD MLOAD SWAP1 POP JUMPDEST PUSH2 0x776 DUP6 DUP3 PUSH2 0x6F8 JUMP JUMPDEST DUP7 SSTORE POP PUSH2 0x7DE JUMP JUMPDEST PUSH1 0x1F NOT DUP5 AND PUSH2 0x78C DUP7 PUSH2 0x568 JUMP JUMPDEST PUSH1 0x0 JUMPDEST DUP3 DUP2 LT ISZERO PUSH2 0x7B4 JUMPI DUP5 DUP10 ADD MLOAD DUP3 SSTORE PUSH1 0x1 DUP3 ADD SWAP2 POP PUSH1 0x20 DUP6 ADD SWAP5 POP PUSH1 0x20 DUP2 ADD SWAP1 POP PUSH2 0x78F JUMP JUMPDEST DUP7 DUP4 LT ISZERO PUSH2 0x7D1 JUMPI DUP5 DUP10 ADD MLOAD PUSH2 0x7CD PUSH1 0x1F DUP10 AND DUP3 PUSH2 0x6DA JUMP JUMPDEST DUP4 SSTORE POP JUMPDEST PUSH1 0x1 PUSH1 0x2 DUP9 MUL ADD DUP9 SSTORE POP POP POP JUMPDEST POP POP POP POP POP POP JUMP INVALID LOG2 PUSH5 0x6970667358 0x22 SLT KECCAK256 SMOD 0x28 DELEGATECALL SELFBALANCE GASLIMIT CREATE2 0xE6 DUP9 DIFFICULTY 0xA7 PUSH20 0xF732AEE54D19EC12CC8B76F8B95849FD0B470BD1 NUMBER PUSH5 0x736F6C6343 STOP ADDMOD 0xF STOP CALLER "
				},
				"gasEstimates": {
					"creation": {
						"codeDepositCost": "415200",
						"executionCost": "449",
						"totalCost": "415649"
					},
					"external": {
						"addPerson(string,uint256)": "infinite",
						"person(uint256)": "infinite",
						"retrieve()": "2437",
						"store(uint256)": "22542"
					}
				},
				"methodIdentifiers": {
					"addPerson(string,uint256)": "6f760f41",
					"person(uint256)": "092a1820",
					"retrieve()": "2e64cec1",
					"store(uint256)": "6057361d"
				}
			},
			"storageLayout": {
				"storage": [
					{
						"astId": 3,
						"contract": "Users/klee1/prj/remix-projects/demo_smart_contract.sol:SimpleStorage",
						"label": "favoriteNumber",
						"offset": 0,
						"slot": "0",
						"type": "t_uint256"
					},
					{
						"astId": 12,
						"contract": "Users/klee1/prj/remix-projects/demo_smart_contract.sol:SimpleStorage",
						"label": "person",
						"offset": 0,
						"slot": "1",
						"type": "t_array(t_struct(People)8_storage)dyn_storage"
					}
				],
				"types": {
					"t_array(t_struct(People)8_storage)dyn_storage": {
						"base": "t_struct(People)8_storage",
						"encoding": "dynamic_array",
						"label": "struct SimpleStorage.People[]",
						"numberOfBytes": "32"
					},
					"t_string_storage": {
						"encoding": "bytes",
						"label": "string",
						"numberOfBytes": "32"
					},
					"t_struct(People)8_storage": {
						"encoding": "inplace",
						"label": "struct SimpleStorage.People",
						"members": [
							{
								"astId": 5,
								"contract": "Users/klee1/prj/remix-projects/demo_smart_contract.sol:SimpleStorage",
								"label": "favoriteNumber",
								"offset": 0,
								"slot": "0",
								"type": "t_uint256"
							},
							{
								"astId": 7,
								"contract": "Users/klee1/prj/remix-projects/demo_smart_contract.sol:SimpleStorage",
								"label": "name",
								"offset": 0,
								"slot": "1",
								"type": "t_string_storage"
							}
						],
						"numberOfBytes": "64"
					},
					"t_uint256": {
						"encoding": "inplace",
						"label": "uint256",
						"numberOfBytes": "32"
					}
				}
			},
			"userdoc": {
				"kind": "user",
				"methods": {},
				"version": 1
			}
		}
	}
}